:03000000020100FA
:03000300020300F5
:03002300020400D4
:10010000C2AFE500F570908007F0908000F090801D
:1001100001F0908002F0908003F0D29EC29F75871C
:1001200080D2AC758920758BF3758DF3D28E90607B
:100130000012088790601D120887D28CD2A8D2883E
:04014000D2AF80FEBC
:0C020000C29CF5993099FDC299D29C2255
:1003000090602512088790601D120887908006F083
:0103100032BA
:10040000C2ACE599C298120899B45303120500B41E
:10041000490312059DB45603120758B4500312063F
:100420002EB44C03120537B45A03120781B4580393
:100430001207B2B443031207E3B44203120804B430
:100440004E03120835B44D03120866B45203120568
:04045000E4D2AC3214
:100500007453120200E570B40008906041757001E8
:100510008017B40108906054757003800CB4030810
:10052000906041757001800122120887908004F06C
:1005300090601D12088722744C12020090606612AF
:1005400008879060881208871208CAB45107740D92
:1005500012020080091208A1F573908000F09060EB
:10056000AB1208871208CAB45107740D120200803A
:10057000091208A1F574908001F09060CD120887EF
:100580001208CAB4510280091208A1F575908002C0
:10059000F0740D12020090601D1208872274491237
:1005A0000200906066120887908003F090601D1230
:1005B000088722908003E0908004E0F57690800523
:1005C000E0F577908006E0F578740D1202009060F7
:1005D000F0120887E5761208ECE5771208ECE5786A
:1005E0001208EC22C0E0745212020090610012085E
:1005F00087908005F090601D120887757000D0E02C
:1006000022908000E0F579908001E0F57A908002F8
:10061000E0F57B740D120200906110120887E579F5
:100620001208ECE57A1208ECE57B1208EC22745013
:1006300012020090612312088790613B1208871212
:1006400008CAB45107740D12020080091208A1F5FE
:1006500072908007F0740D12020090601D120887DE
:0B06600022906153120887908007E091
:10066B00F57C1208ECE57C740D12020090616212AD
:10067B000887E57C20E00774301202008005743196
:10068B00120200740D12020090617B120887E57C48
:10069B0020E10774301202008005743112020074DD
:1006AB000D120200906191120887E57C20E207741D
:1006BB003012020080057431120200740D12020018
:1006CB009061AB120887E57C20E3077430120200BF
:1006DB0080057431120200740D1202009061C91270
:1006EB000887E57C20E40774301202008005743122
:1006FB00120200740D1202009061E3120887E57C70
:10070B0020E5077430120200800574311202007468
:10071B000D1202009061FC120887E57C20E607743D
:10072B003012020080057431120200740D120200A7
:10073B00906218120887E57C20E7077430120200DC
:10074B0080057431120200740D12020022C0E07495
:10075B0056120200906234120887740D12020012B6
:10076B0006611206011205B3740D12020090601D92
:10077B00120887D0E022745A12020090624B1208C2
:10078B008712079B740D12020090601D12088722BE
:10079B00908008E0F57D740D120200906339120809
:1007AB0087E57D1208EC22745812020090627112D8
:1007BB0008871207CC740D12020090601D12088777
:1007CB0022908009E0F57E740D12020090633912BD
:0807DB000887E57E1208EC22FC
:1007E300C0E0744312020090629812088712079BBC
:1007F3001207CC740D12020090601D120887D0E01E
:100803002274421202009062BF12088712081E74FB
:100813000D12020090601D12088722908008E57D6A
:10082300F0740D120200906339120887E57D1208F7
:10083300EC22744E1202009062E712088712084FEE
:10084300740D12020090601D12088722908009E542
:100853007EF0740D120200906339120887E57E1250
:1008630008EC22C0E0744D12020090631012088756
:1008730012081E12084F740D12020090601D120818
:1008830087D0E022C0E07800E893B40003D0E022F0
:100893001202000880F2B46100400294202218186A
:1008A300E61208B0C4F908E61208B02922B43A00E7
:1008B3004003943722C2D7943022540FB40A004025
:1008C3000324372224302278603098FDC298E599BA
:1008D300120899B45103C29822120200F6B40D0112
:1008E30022C29808B80FE280DEC0E0C41208BD122D
:0B08F3000200D0E01208BD120200223B
:1060000050524F494543542053495354454D452020
:10601000494E434F52504F524154450D0052454155
:1060200044590D3E000D496E74726572757065724B
:10603000652067656E657261746120686172640DC8
:10604000000D436F6D616E6461206465207374613F
:1060500072740D000D436F6D616E64612064652084
:1060600073746F700D000D496E63617263617265C8
:1060700020636F6E7374616E7465206465206E7545
:106080006D61726172650D00312E20496E74726F00
:106090006475636574692076616C6F617265204C0C
:1060A0005342202868657861293A00322E20496ED3
:1060B00074726F6475636574692076616C6F617268
:1060C00065204D42202868657861293A00332E20EA
:1060D000496E74726F6475636574692076616C6F64
:1060E000617265204D5342202868657861293A0025
:1060F00056616C6F61726520636F6E746F723A00E7
:106100000D436F6D616E64612052657365740D009F
:1061100056616C6F6172652070726573657461742D
:10612000613A000D50726F6772616D617265207621
:10613000616C6F61726561204343000D496E74723A
:106140006F647563657469204343202868657861CE
:10615000293A00537461726520436F6E746F723A0E
:1061600020005374617475732E30202D2053746198
:10617000726520436F6E746F723A00537461747568
:10618000732E31202D2052657A6F6C757469653AD3
:10619000005374617475732E32202D2053656E7315
:1061A000204E756D61726172653A00537461747549
:1061B000732E33202D204469726563746965204E07
:1061C000756D61726172653A005374617475732EF6
:1061D00034202D204175746F696E63617263617242
:1061E000653A005374617475732E35202D20466115
:1061F0006E696F6E202F494E54303A0053746174AB
:1062000075732E36202D205374726F626172652073
:106210006772757020313A005374617475732E374C
:10622000202D205374726F626172652067727570E1
:1062300020323A000D436F6D616E64612056697AB9
:1062400075616C697A6172653A0D000D4369746914
:1062500072652076616C6F7269206C696E69692065
:10626000646520696E74726172652049302D373A19
:10627000000D4369746972652076616C6F726920E4
:106280006C696E696920646520696E7472617265FB
:106290002049382D31353A000D4369746972652003
:1062A00076616C6F7269206C696E69692064652023
:1062B000696E74726172652049302D31353A000D76
:1062C000536372696572652076616C6F7269206CC8
:1062D000696E696920646520696573697265204F1C
:1062E0005554302D373A000D53637269657265203D
:1062F00076616C6F7269206C696E696920646520D3
:10630000696573697265204F5554382D31353A00EF
:106310000D536372696572652076616C6F726920D6
:106320006C696E69692064652069657369726520AE
:106330004F5554302D31353A0056616C6F6172659E
:026340003A0021
:00000001FF
